{
  "_format": "hh-sol-artifact-1",
  "contractName": "Lottery",
  "sourceName": "contracts/Lottery.sol",
  "abi": [
    {
      "inputs": [],
      "stateMutability": "payable",
      "type": "constructor"
    },
    {
      "inputs": [
        {
          "internalType": "uint256",
          "name": "weiGiven",
          "type": "uint256"
        },
        {
          "internalType": "uint256",
          "name": "requiredWei",
          "type": "uint256"
        }
      ],
      "name": "NotEnoughEther",
      "type": "error"
    },
    {
      "inputs": [],
      "name": "enterLottery",
      "outputs": [],
      "stateMutability": "payable",
      "type": "function"
    },
    {
      "inputs": [],
      "name": "getPlayers",
      "outputs": [
        {
          "internalType": "address[]",
          "name": "",
          "type": "address[]"
        }
      ],
      "stateMutability": "view",
      "type": "function"
    },
    {
      "inputs": [],
      "name": "getWinner",
      "outputs": [],
      "stateMutability": "payable",
      "type": "function"
    },
    {
      "inputs": [
        {
          "internalType": "uint256",
          "name": "",
          "type": "uint256"
        }
      ],
      "name": "players",
      "outputs": [
        {
          "internalType": "address",
          "name": "",
          "type": "address"
        }
      ],
      "stateMutability": "view",
      "type": "function"
    },
    {
      "inputs": [
        {
          "internalType": "address",
          "name": "",
          "type": "address"
        }
      ],
      "name": "playersData",
      "outputs": [
        {
          "internalType": "uint256",
          "name": "",
          "type": "uint256"
        }
      ],
      "stateMutability": "view",
      "type": "function"
    },
    {
      "inputs": [
        {
          "internalType": "address[]",
          "name": "_players",
          "type": "address[]"
        }
      ],
      "name": "random",
      "outputs": [
        {
          "internalType": "uint256",
          "name": "",
          "type": "uint256"
        }
      ],
      "stateMutability": "view",
      "type": "function"
    }
  ],
  "bytecode": "0x608060405260003403610047576040517f08c379a000000000000000000000000000000000000000000000000000000000815260040161003e906100f0565b60405180910390fd5b336000806101000a81548173ffffffffffffffffffffffffffffffffffffffff021916908373ffffffffffffffffffffffffffffffffffffffff16021790555034600181905550610110565b600082825260208201905092915050565b7f4e6f206d696e2076616c75650000000000000000000000000000000000000000600082015250565b60006100da600c83610093565b91506100e5826100a4565b602082019050919050565b60006020820190508181036000830152610109816100cd565b9050919050565b610c4d8061011f6000396000f3fe6080604052600436106100555760003560e01c80638b5b9ccc1461005a5780638e7ea5b214610085578063b4b72d821461008f578063c1af5785146100cc578063d4266cf3146100d6578063f71d96cb14610113575b600080fd5b34801561006657600080fd5b5061006f610150565b60405161007c9190610710565b60405180910390f35b61008d6101de565b005b34801561009b57600080fd5b506100b660048036038101906100b19190610772565b6103f7565b6040516100c391906107b8565b60405180910390f35b6100d461040f565b005b3480156100e257600080fd5b506100fd60048036038101906100f8919061092c565b610503565b60405161010a91906107b8565b60405180910390f35b34801561011f57600080fd5b5061013a600480360381019061013591906109a1565b61053a565b60405161014791906109dd565b60405180910390f35b606060038054806020026020016040519081016040528092919081815260200182805480156101d457602002820191906000526020600020905b8160009054906101000a900473ffffffffffffffffffffffffffffffffffffffff1673ffffffffffffffffffffffffffffffffffffffff168152602001906001019080831161018a575b5050505050905090565b3373ffffffffffffffffffffffffffffffffffffffff1660008054906101000a900473ffffffffffffffffffffffffffffffffffffffff1673ffffffffffffffffffffffffffffffffffffffff161461026c576040517f08c379a000000000000000000000000000000000000000000000000000000000815260040161026390610a55565b60405180910390fd5b600060038054905061030360038054806020026020016040519081016040528092919081815260200182805480156102f957602002820191906000526020600020905b8160009054906101000a900473ffffffffffffffffffffffffffffffffffffffff1673ffffffffffffffffffffffffffffffffffffffff16815260200190600101908083116102af575b5050505050610503565b61030d9190610aa4565b90506003818154811061032357610322610ad5565b5b9060005260206000200160009054906101000a900473ffffffffffffffffffffffffffffffffffffffff1673ffffffffffffffffffffffffffffffffffffffff166108fc479081150290604051600060405180830381858888f19350505050158015610393573d6000803e3d6000fd5b50600067ffffffffffffffff8111156103af576103ae6107e9565b5b6040519080825280602002602001820160405280156103dd5781602001602082028036833780820191505090505b50600390805190602001906103f3929190610579565b5050565b60026020528060005260406000206000915090505481565b60015434101561045a57346001546040517f41ba67b6000000000000000000000000000000000000000000000000000000008152600401610451929190610b04565b60405180910390fd5b34600260003373ffffffffffffffffffffffffffffffffffffffff1673ffffffffffffffffffffffffffffffffffffffff168152602001908152602001600020819055506003339080600181540180825580915050600190039060005260206000200160009091909190916101000a81548173ffffffffffffffffffffffffffffffffffffffff021916908373ffffffffffffffffffffffffffffffffffffffff160217905550565b600044428360405160200161051a93929190610bde565b6040516020818303038152906040528051906020012060001c9050919050565b6003818154811061054a57600080fd5b906000526020600020016000915054906101000a900473ffffffffffffffffffffffffffffffffffffffff1681565b8280548282559060005260206000209081019282156105f2579160200282015b828111156105f15782518260006101000a81548173ffffffffffffffffffffffffffffffffffffffff021916908373ffffffffffffffffffffffffffffffffffffffff16021790555091602001919060010190610599565b5b5090506105ff9190610603565b5090565b5b8082111561061c576000816000905550600101610604565b5090565b600081519050919050565b600082825260208201905092915050565b6000819050602082019050919050565b600073ffffffffffffffffffffffffffffffffffffffff82169050919050565b60006106778261064c565b9050919050565b6106878161066c565b82525050565b6000610699838361067e565b60208301905092915050565b6000602082019050919050565b60006106bd82610620565b6106c7818561062b565b93506106d28361063c565b8060005b838110156107035781516106ea888261068d565b97506106f5836106a5565b9250506001810190506106d6565b5085935050505092915050565b6000602082019050818103600083015261072a81846106b2565b905092915050565b6000604051905090565b600080fd5b600080fd5b61074f8161066c565b811461075a57600080fd5b50565b60008135905061076c81610746565b92915050565b6000602082840312156107885761078761073c565b5b60006107968482850161075d565b91505092915050565b6000819050919050565b6107b28161079f565b82525050565b60006020820190506107cd60008301846107a9565b92915050565b600080fd5b6000601f19601f8301169050919050565b7f4e487b7100000000000000000000000000000000000000000000000000000000600052604160045260246000fd5b610821826107d8565b810181811067ffffffffffffffff821117156108405761083f6107e9565b5b80604052505050565b6000610853610732565b905061085f8282610818565b919050565b600067ffffffffffffffff82111561087f5761087e6107e9565b5b602082029050602081019050919050565b600080fd5b60006108a86108a384610864565b610849565b905080838252602082019050602084028301858111156108cb576108ca610890565b5b835b818110156108f457806108e0888261075d565b8452602084019350506020810190506108cd565b5050509392505050565b600082601f830112610913576109126107d3565b5b8135610923848260208601610895565b91505092915050565b6000602082840312156109425761094161073c565b5b600082013567ffffffffffffffff8111156109605761095f610741565b5b61096c848285016108fe565b91505092915050565b61097e8161079f565b811461098957600080fd5b50565b60008135905061099b81610975565b92915050565b6000602082840312156109b7576109b661073c565b5b60006109c58482850161098c565b91505092915050565b6109d78161066c565b82525050565b60006020820190506109f260008301846109ce565b92915050565b600082825260208201905092915050565b7f4e6f742041757468000000000000000000000000000000000000000000000000600082015250565b6000610a3f6008836109f8565b9150610a4a82610a09565b602082019050919050565b60006020820190508181036000830152610a6e81610a32565b9050919050565b7f4e487b7100000000000000000000000000000000000000000000000000000000600052601260045260246000fd5b6000610aaf8261079f565b9150610aba8361079f565b925082610aca57610ac9610a75565b5b828206905092915050565b7f4e487b7100000000000000000000000000000000000000000000000000000000600052603260045260246000fd5b6000604082019050610b1960008301856107a9565b610b2660208301846107a9565b9392505050565b6000819050919050565b610b48610b438261079f565b610b2d565b82525050565b600081905092915050565b610b628161066c565b82525050565b6000610b748383610b59565b60208301905092915050565b6000610b8b82610620565b610b958185610b4e565b9350610ba08361063c565b8060005b83811015610bd1578151610bb88882610b68565b9750610bc3836106a5565b925050600181019050610ba4565b5085935050505092915050565b6000610bea8286610b37565b602082019150610bfa8285610b37565b602082019150610c0a8284610b80565b915081905094935050505056fea2646970667358221220426ebfe1d09ba6bce4f48a07d27d18b91f487f839716829894eb88b3a42546cc64736f6c634300080f0033",
  "linkReferences": {},
  "deployedLinkReferences": {}
}