{
  "_format": "hh-sol-artifact-1",
  "contractName": "Random",
  "sourceName": "contracts/Random.sol",
  "abi": [
    {
      "inputs": [
        {
          "internalType": "address[]",
          "name": "_players",
          "type": "address[]"
        }
      ],
      "name": "random",
      "outputs": [
        {
          "internalType": "uint256",
          "name": "",
          "type": "uint256"
        }
      ],
      "stateMutability": "view",
      "type": "function"
    }
  ],
  "bytecode": "0x608060405234801561001057600080fd5b50610427806100206000396000f3fe608060405234801561001057600080fd5b506004361061002b5760003560e01c8063d4266cf314610030575b600080fd5b61004a60048036038101906100459190610262565b610060565b60405161005791906102c4565b60405180910390f35b6000444283604051602001610077939291906103b8565b6040516020818303038152906040528051906020012060001c9050919050565b6000604051905090565b600080fd5b600080fd5b600080fd5b6000601f19601f8301169050919050565b7f4e487b7100000000000000000000000000000000000000000000000000000000600052604160045260246000fd5b6100f9826100b0565b810181811067ffffffffffffffff82111715610118576101176100c1565b5b80604052505050565b600061012b610097565b905061013782826100f0565b919050565b600067ffffffffffffffff821115610157576101566100c1565b5b602082029050602081019050919050565b600080fd5b600073ffffffffffffffffffffffffffffffffffffffff82169050919050565b60006101988261016d565b9050919050565b6101a88161018d565b81146101b357600080fd5b50565b6000813590506101c58161019f565b92915050565b60006101de6101d98461013c565b610121565b9050808382526020820190506020840283018581111561020157610200610168565b5b835b8181101561022a578061021688826101b6565b845260208401935050602081019050610203565b5050509392505050565b600082601f830112610249576102486100ab565b5b81356102598482602086016101cb565b91505092915050565b600060208284031215610278576102776100a1565b5b600082013567ffffffffffffffff811115610296576102956100a6565b5b6102a284828501610234565b91505092915050565b6000819050919050565b6102be816102ab565b82525050565b60006020820190506102d960008301846102b5565b92915050565b6000819050919050565b6102fa6102f5826102ab565b6102df565b82525050565b600081519050919050565b600081905092915050565b6000819050602082019050919050565b61032f8161018d565b82525050565b60006103418383610326565b60208301905092915050565b6000602082019050919050565b600061036582610300565b61036f818561030b565b935061037a83610316565b8060005b838110156103ab5781516103928882610335565b975061039d8361034d565b92505060018101905061037e565b5085935050505092915050565b60006103c482866102e9565b6020820191506103d482856102e9565b6020820191506103e4828461035a565b915081905094935050505056fea2646970667358221220ece410297f6bbb5f2112cca79a37e6f5471d57db8938ad53da61520e5bc4750c64736f6c634300080f0033",
  "linkReferences": {},
  "deployedLinkReferences": {}
}